:0400000055EF0CF0BC
:101000000000250E336E6CEC0CF0020E366E040EF2
:10101000356EBA0EE82EFED7352EFCD7362EFAD70F
:1010200000D0260E336E6CEC0CF0020E366E040E01
:10103000356EBA0EE82EFED7352EFCD7362EFAD7EF
:1010400000D0270E336E6CEC0CF0020E366E040EE0
:10105000356EBA0EE82EFED7352EFCD7362EFAD7CF
:1010600000D0280E336E6CEC0CF0020E366E040EBF
:10107000356EBA0EE82EFED7352EFCD7362EFAD7AF
:1010800000D0290E336E6CEC0CF0020E366E040E9E
:10109000356EBA0EE82EFED7352EFCD7362EFAD78F
:1010A00000D02A0E336E6CEC0CF0020E366E040E7D
:1010B000356EBA0EE82EFED7352EFCD7362EFAD76F
:1010C00000D02B0E336E6CEC0CF0020E366E040E5C
:1010D000356EBA0EE82EFED7352EFCD7362EFAD74F
:1010E00000D02B0E336E83EC0CF0020E366E040E25
:1010F000356EBA0EE82EFED7352EFCD7362EFAD72F
:1011000000D02A0E336E83EC0CF0020E366E040E05
:10111000356EBA0EE82EFED7352EFCD7362EFAD70E
:1011200000D0290E336E83EC0CF0020E366E040EE6
:10113000356EBA0EE82EFED7352EFCD7362EFAD7EE
:1011400000D0280E336E83EC0CF0020E366E040EC7
:10115000356EBA0EE82EFED7352EFCD7362EFAD7CE
:1011600000D0270E336E83EC0CF0020E366E040EA8
:10117000356EBA0EE82EFED7352EFCD7362EFAD7AE
:1011800000D0260E336E83EC0CF0020E366E040E89
:10119000356EBA0EE82EFED7352EFCD7362EFAD78E
:1011A00000D0250E336E83EC0CF0020E366E040E6A
:1011B000356EBA0EE82EFED7352EFCD7362EFAD76E
:1011C00000D012002B0E336E6CEC0CF0020E366E5B
:1011D000040E356EBA0EE82EFED7352EFCD7362E0D
:1011E000FAD700D02A0E336E6CEC0CF0020E366E7D
:1011F000040E356EBA0EE82EFED7352EFCD7362EED
:10120000FAD700D0290E336E6CEC0CF0020E366E5D
:10121000040E356EBA0EE82EFED7352EFCD7362ECC
:10122000FAD700D0280E336E6CEC0CF0020E366E3E
:10123000040E356EBA0EE82EFED7352EFCD7362EAC
:10124000FAD700D0270E336E6CEC0CF0020E366E1F
:10125000040E356EBA0EE82EFED7352EFCD7362E8C
:10126000FAD700D0260E336E6CEC0CF0020E366E00
:10127000040E356EBA0EE82EFED7352EFCD7362E6C
:10128000FAD700D0250E336E6CEC0CF0020E366EE1
:10129000040E356EBA0EE82EFED7352EFCD7362E4C
:1012A000FAD700D0250E336E83EC0CF0020E366EAA
:1012B000040E356EBA0EE82EFED7352EFCD7362E2C
:1012C000FAD700D0260E336E83EC0CF0020E366E89
:1012D000040E356EBA0EE82EFED7352EFCD7362E0C
:1012E000FAD700D0270E336E83EC0CF0020E366E68
:1012F000040E356EBA0EE82EFED7352EFCD7362EEC
:10130000FAD700D0280E336E83EC0CF0020E366E46
:10131000040E356EBA0EE82EFED7352EFCD7362ECB
:10132000FAD700D0290E336E83EC0CF0020E366E25
:10133000040E356EBA0EE82EFED7352EFCD7362EAB
:10134000FAD700D02A0E336E83EC0CF0020E366E04
:10135000040E356EBA0EE82EFED7352EFCD7362E8B
:10136000FAD700D02B0E336E83EC0CF0020E366EE3
:10137000040E356EBA0EE82EFED7352EFCD7362E6B
:10138000FAD700D012002C50D8B4C9EF09F0CBEF37
:1013900009F0E9EF09F02C50D96EDA6ADF30E83253
:1013A000E832070B2D6E080E2D60D9EF09F0DBEF48
:1013B00009F0E9EF09F02C50D96EDA6ADF50070B1B
:1013C0002D6E040E2D64E7EF09F0E9EF09F03EEF12
:1013D0000AF054EF0AF02C50D96EDA6ADF30E832A6
:1013E000E832070B2D6E010E2E6E2D2AFAEF09F052
:1013F000D8902E362D2EF8EF09F02C50D96EDA6ADF
:10140000DF50070B020DF350150FD96EDA6ADECFED
:101410002FF0DDCF30F02FC0D9FF30C0DAFF2E50D3
:10142000DF12E9EF09F02C50D96EDA6ADF30E832CA
:10143000E832070B2D6E010E2E6E2D2A22EF0AF0D8
:10144000D8902E362D2E20EF0AF02E50FF0A2F6E48
:101450002C50D96EDA6ADF50070B020DF350150FCE
:10146000D96EDA6ADECF30F0DDCF31F030C0D9FF8F
:1014700031C0DAFF2F50DF16E9EF09F02C50D96E9A
:10148000DA6ADFBC46EF0AF049EF0AF0010E4AEFD4
:101490000AF0000E000AD8B413EF0AF0010AD8B41B
:1014A000EBEF09F0E9EF09F0010E12002C50D8B46F
:1014B0005CEF0AF05EEF0AF07CEF0AF02C50D96E78
:1014C000DA6ADF30E832E832070B2E6E080E2E6043
:1014D0006CEF0AF06EEF0AF07CEF0AF02C50D96E38
:1014E000DA6ADF50070B2E6E040E2E647AEF0AF0D4
:1014F0007CEF0AF0D1EF0AF0E6EF0AF02C50D96E3B
:10150000DA6ADF30E832E832070B2E6E010E2F6EFA
:101510002E2A8DEF0AF0D8902F362E2E8BEF0AF060
:101520002F50FF0A306E2C50D96EDA6ADF50070B4D
:10153000020DF350010FD96EDA6ADECF31F0DDCF44
:1015400032F031C0D9FF32C0DAFF3050DF167CEF05
:101550000AF02C50D96EDA6ADF30E832E832070B35
:101560002E6E010E2F6E2E2AB8EF0AF0D8902F366D
:101570002E2EB6EF0AF02C50D96EDA6ADF50070B28
:10158000020DF350010FD96EDA6ADECF30F0DDCFF5
:1015900031F030C0D9FF31C0DAFF2F50DF127CEFBD
:1015A0000AF02D502E6E2F6A2F50000AD8B4DBEFB0
:1015B0000AF07CEF0AF02E50000AD8B47EEF0AF051
:1015C000010AD8B4A9EF0AF07CEF0AF0010E12006C
:1015D0002C50D8B4EEEF0AF0F0EF0AF016EF0BF053
:1015E0002D50D8B4F6EF0AF0F8EF0AF016EF0BF032
:1015F0002C50D96EDA6ADF30E832E832070B2E6EF3
:10160000080E2E6006EF0BF008EF0BF016EF0BF054
:101610002C50D96EDA6ADF50070B2E6E040E2E6442
:1016200014EF0BF016EF0BF018EF0BF042EF0BF08E
:101630002D50D96EDA6A2C50E16EE26AE730E8325A
:10164000E832070B2E6E2C50E16EE26AE750070B72
:10165000020DF3500B0FE16EE26AE6CF2FF0E5CFFB
:1016600030F02FC0E1FF30C0E2FFE750316E2E2A8C
:101670003CEF0BF0D89031322E2E3AEF0BF0315078
:10168000010BDF6E010E12003250D8B44AEF0BF09E
:101690004CEF0BF054EF0BF03350D8A452EF0BF09B
:1016A00054EF0BF056EF0BF097EF0BF0000E356E8A
:1016B00032C02CF0350E2D6EE8EC0AF03250D96EA7
:1016C000DA6A020ED926DE04D8A469EF0BF06BEFBC
:1016D0000BF080EF0BF03504D8A471EF0BF073EF33
:1016E0000BF07AEF0BF03350D96EDA6A010EDF6E31
:1016F00054EF0BF03350D96EDA6ADF6A54EF0BF017
:101700003250D96EDA6A020ED926DF50D8A48BEF98
:101710000BF08DEF0BF097EF0BF03504D8A493EF9F
:101720000BF095EF0BF073EF0BF07AEF0BF012006C
:101730003350D8B49EEF0BF0A0EF0BF0BEEF0BF0E0
:101740003350D96EDA6ADF30E832E832070B346E94
:10175000080E3460AEEF0BF0B0EF0BF0BEEF0BF005
:101760003350D96EDA6ADF50070B346E040E3464DE
:10177000BCEF0BF0BEEF0BF0C2EF0BF0010E356EBD
:10178000D3EF0BF033C02CF0C3EC09F0356E33C04F
:101790002CF03350D96EDA6A000EDFBE010E2D6ECA
:1017A00056EC0AF03516355012002D50D96EDA6A13
:1017B000DF50070B2E6E2C50D96EDA6ADF502E18D0
:1017C000F80B2E18DF6E2D50D96EDA6ADF30E83252
:1017D000E832070B2E6E2C50D96EDA6A2E462E4652
:1017E0002E46DF502E18C70B2E18DF6E2C50D96EE8
:1017F000DA6ADF9C2D50D96EDA6A2C50E16EE26A0B
:10180000E79EDFAC05EF0CF0E78E120030EC0CF039
:10181000220E326E390E336E44EC0BF01F0E326E18
:10182000380E336E44EC0BF03904D8A41AEF0CF0E8
:101830001CEF0CF020EF0CF0E2EC08F008EF0CF0DD
:101840003850D8A426EF0CF028EF0CF02CEF0CF059
:1018500001EC08F008EF0CF008EF0CF000EF00F0DE
:101860002B0E366EB0EC0CF02A0E366EB0EC0CF08F
:10187000290E366EB0EC0CF0280E366EB0EC0CF083
:10188000270E366EB0EC0CF0260E366EB0EC0CF077
:10189000250E366EB0EC0CF0220E326EC5EC0CF05C
:1018A0001F0E326EC5EC0CF01200340EF66E190EDF
:1018B000F76E000EF86E00EE01F010EE2BF009004E
:1018C000F5CFEEFFE550E150FAE1396A386A000ED3
:1018D000F86E000106EF0CF03350D8A472EF0CF054
:1018E00074EF0CF076EF0CF082EF0CF0340E2C6EEF
:1018F00033C02DF0D5EC0BF0340E2C6E010E2D6E96
:1019000056EC0AF012003350D8A489EF0CF08BEF9C
:101910000CF08DEF0CF099EF0CF0340E2C6E33C000
:101920002DF0D5EC0BF0340E2C6E000E2D6E56EC17
:101930000AF01200890F8A0F8B0F8C0F8D0F800F0A
:10194000810F820F830F840F920F930F940F950FC7
:0F195000960FCA00014200013129211911090126
:101960003650D8A4B6EF0CF0B8EF0CF0BAEF0CF08C
:10197000C4EF0CF0370E2C6E36C02DF0D5EC0BF00A
:10198000370E336E98EC0BF012003250D8A4CBEF28
:101990000CF0CDEF0CF0CFEF0CF0D3EF0CF032C029
:0819A0002CF0C3EC09F0120069
:00000001FF
